:100000000205A3008F828E83E0540100000070F887
:100010002278FFE4F6D8FD020601BB010689828A38
:1000200083E0225002E722BBFE02E32289828A8318
:10003000E49322BB010689828A83F0225002F722D0
:10004000BBFE01F322C5F0F8A3E028F0C5F0F8E507
:1000500082158270021583E038F022EF2BFFEE3A12
:10006000FEED39FDEC38FC22E88FF0A4CC8BF0A437
:100070002CFCE98EF0A42CFC8AF0EDA42CFCEA8E7A
:10008000F0A4CDA8F08BF0A42DCC3825F0FDE98F9D
:10009000F0A42CCD35F0FCEB8EF0A4FEA9F0EB8F94
:1000A000F0A4CFC5F02ECD39FEE43CFCEAA42DCE61
:1000B00035F0FDE43CFC2275F008758200EF2FFF5F
:1000C000EE33FECD33CDCC33CCC58233C5829BED30
:1000D0009AEC99E58298400CF582EE9BFEED9AFD34
:1000E000EC99FC0FD5F0D6E4CEFBE4CDFAE4CCF9E4
:1000F000A88222B800C1B90059BA002DEC8BF08457
:10010000CFCECDFCE5F0CBF97818EF2FFFEE33FE24
:10011000ED33FDEC33FCEB33FB10D703994004EBDC
:1001200099FB0FD8E5E4F9FA227818EF2FFFEE33A8
:10013000FEED33FDEC33FCC933C910D7059BE99ABA
:100140004007EC9BFCE99AF90FD8E0E4C9FAE4CC4B
:10015000FB2275F010EF2FFFEE33FEED33FDCC33B5
:10016000CCC833C810D7079BEC9AE899400AED9B9E
:10017000FDEC9AFCE899F80FD5F0DAE4CDFBE4CC7D
:10018000FAE4C8F922EF4BFFEE4AFEED49FDEC48D8
:10019000FC22EB9FF5F0EA9E42F0E99D42F0E89CDC
:1001A00045F022E8600FECC313FCED13FDEE13FEE7
:1001B000EF13FFD8F122E8600FEFC333FFEE33FEF9
:1001C000ED33FDEC33FCD8F122BB010789828A8331
:1001D0000202035005E9F80202BCBBFE05E9F80281
:1001E00002C889828A830202D4BB010789828A837A
:1001F00002021B5005E9F80202E4BBFE05E9F80221
:1002000002F022E0FCA3E0FDA3E0FEA3E0FF22E079
:10021000F8A3E0F9A3E0FAA3E0FB22ECF0A3EDF0F1
:10022000A3EEF0A3EFF022E0FBA3E0FAA3E0F922B3
:10023000EBF0A3EAF0A3E9F022E493FB740193FA54
:10024000740293F922D083D082F8E493701274017F
:1002500093700DA3A393F8740193F5828883E473DC
:100260007402936860EFA3A3A380DFE50C2582F5F9
:1002700082E50B3583F583B50B0485820C2210AF24
:100280000685820CF50B2285820CF50BD2AF22EC91
:100290008EF0A4CCC5F0CCCDF8EFA4CEC5F02DFDEA
:1002A000E43CFCE8A42EC8C5F03DFDE43CFCEFA412
:1002B000FFE5F028FEE43DFDE43CFC22E6FC08E618
:1002C000FD08E6FE08E6FF22E2FC08E2FD08E2FE89
:1002D00008E2FF22E493FC740193FD740293FE7420
:1002E0000393FF22ECF608EDF608EEF608EFF6228F
:1002F000ECF208EDF208EEF208EFF2227F947E01B4
:100300007D007C0090005A12021B905120E0FFEF0C
:100310005480FFEFF0905122E0FFEF54F0FF900087
:1003200059EFF0900059E0FFEF440FFF905122EF9A
:10033000F0905123E0FFEF54F0FF900059EFF09060
:100340000059E0FF905123EFF0905124E0FFEF546B
:10035000F0FF900059EFF0900059E0FF905124EF2A
:10036000F0905120E0FFEF54DFFFEFF0905120E0DC
:10037000FFEF4440FFEFF07F007E00120C709051C1
:1003800020E0FFEF4410FFEFF07F017E00120C70C1
:10039000905121E0FF900059EFF0905120E0FFEFE5
:1003A00054EFFFEFF07F007E00120C70900059E0D8
:1003B000FFEF5408FF900059EFF0905120E0FFEF5D
:1003C0004410FFEFF07F017E00120C70905120E08E
:1003D000FFEF54EFFFEFF0900059E0FFEF70077F61
:1003E0000A7E00120C7090005A1202037BFF7AFF03
:1003F00079FF78FF12005B90005A12021B9000599F
:10040000E0FFEF601290005A120203D3EF9400EE67
:1004100094004003020377905120E0FFEF54BFFFA8
:10042000EFF0905120E0FFEF5480FFEFF090512269
:10043000E0FFEF54F0FFEFF0905123E0FFEF54F0B6
:10044000FF900059EFF0900059E0FFEF440FFF904C
:100450005123EFF0905124E0FFEF54F0FF9000594A
:10046000EFF0900059E0FFEF440FFF905124EFF0C0
:10047000227B007A4679E8120D19EF4405FD7B00D6
:100480007A4679E8120D25750A00E50AC3940950E9
:100490003AAF0AEF75F005A42471F582E4340DF546
:1004A00083AF82AE838E088F09AE08AF098F828E2C
:1004B00083120239AE08AF098F828E83740393FCD6
:1004C000740493FD120BDE050A80BF7B017A50791C
:1004D00003120D19EF4402FD7B017A507903120DCE
:1004E000257B017A507913120D19EF4402FD7B012F
:1004F0007A507913120D257B087A007900C003C069
:1005000002C0017B007A517912900057120230D05C
:1005100001D002D0037F087E00120C3B7B087A00DA
:100520007908C003C002C0017B007A517922900093
:1005300057120230D001D002D0037F087E00120C87
:100540003B904322E0FFEF4408FF904322EFF090FE
:1005500046ECE0FFEFC394055006904689743AF0EC
:100560009048007431F012069090480074B1F01277
:100570000B3C7B007A4379A0C003C002C0017B0022
:100580007A4379B0900057120230D001D002D003E4
:100590007F0E7E00120C3B9043B0E0FFEF54FDFF56
:1005A000EFF02275930078007583467582E8E04489
:1005B00001F0009046ECE0F99046FAE0FAB9032227
:1005C0005420B40012B8001AEA901FFFF074019092
:1005D0001FFEF09046F6F0901FFEE06005901FFFB2
:1005E000E0FA90480074C0F075810C90000078002B
:1005F0007920E4F0A3D8FCD9FAEA90004DF002008B
:1006000011750B1F750CFD120A5E12047102064B68
:10061000020773E493A3F8E493A34003F68001F286
:1006200008DFF48029E493A3F85407240CC8C333EB
:10063000C4540F4420C8834004F456800146F6DFBA
:10064000E4800B0102040810204080900C9DE47EA1
:10065000019360BCA3FF543F30E509541FFEE493AF
:10066000A360010ECF54C025E060A840B8E493A376
:10067000FAE493A3F8E493A3C8C582C8CAC583CAA1
:10068000F0A3C8C582C8CAC583CADFE9DEE780BE59
:100690009043007402F09040007408F0904200749F
:1006A00003F07B0C7A017908120D199046A1EFF046
:1006B0007B007A4279227D087C00120CF07B007A64
:1006C0004279207D517C12120CF0900056E4F07FAC
:1006D000197E007D007C0090005212021B90005297
:1006E000120203D3EF9400EE9400404E900056E0C7
:1006F000FFEF64036044904225E0FFEF5401FF7E6A
:1007000000900056E0FEEE25E0FEEE4FFFEF5403B2
:10071000FF900056EFF07FE07E017D007C00120C20
:10072000009000521202037BFF7AFF79FF78FF12DC
:10073000005B90005212021B80A390005212020331
:10074000EF4E70057F03120CDE7B007A4079047D4A
:10075000007C01120CF09040047407F0904006E415
:10076000F09040087448F0904004E4F09040017428
:1007700002F022900052E4F0120CC97FB07E047D9A
:10078000007C0012088A7F01120BA8900052E0FF43
:10079000EFB403157D057F011208F07D087F01127B
:1007A000094E900052E4F080D2900052E0FFEFB486
:1007B00002167D047F001208F07D087F0012094EAA
:1007C000900052E004F080B3900052E0FFEFB401DB
:1007D000167D007F011208F07D0C7F0112094E90FA
:1007E0000052E004F08094900052E0FFEF708C7DA6
:1007F000007F001208F07D0C7F0012094E9000521D
:10080000E004F002077B227F287E007D007C00123E
:10081000088A7F03120AAC7F057E007D007C0012EF
:10082000088A7F03120AAC7F0F7E007D007C0012D5
:10083000088A7F03120AAC7F017E007D007C0012D3
:10084000088A7F02120AAC7F057E007D007C0012C0
:10085000088A7F06120BA87F0E120BA87F2C120BA2
:10086000A87F08120BA87F01120BA87F0C120BA8FF
:100870007F03120BA87F057E007D007C0012088A92
:100880007BFF7A0D7931120AF52290FFFC12026B80
:1008900012021B850B83850C82120203D3EF940096
:1008A000EE9480402F90004E120203120C00850B34
:1008B00083850C82C083C082120203EF2400FFEE06
:1008C0003480FEED34FFFDEC34FFFCD082D0831287
:1008D000021B80BF900044120203850B83850C82AB
:1008E00012020F120068120C0090000412026B2218
:1008F000900053EFF0900054EDF0900053E0FF9023
:100900000054E0FD120A077F00120CFF900053E034
:10091000FF900054E0FEEE04FD120A077F01120C66
:10092000FF900053E0FF900054E0FEEE2402FD1221
:100930000A077F02120CFF900053E0FF900054E082
:10094000FEEE2403FD120A077F03120CFF22900023
:1009500053EFF0900054EDF0900053E0FF900054FE
:10096000E0FD120A077F04120CFF900053E0FF9095
:100970000054E0FEEE04FD120A077F05120CFF9002
:100980000053E0FF900054E0FEEE2402FD120A073F
:100990007F06120CFF900053E0FF900054E0FEEE43
:1009A0002403FD120A077F07120CFF22900059EF63
:1009B000F0905120E0FFEF4420FFEFF0905120E055
:1009C000FFEF54BFFFEFF07F007E00120C709051DC
:1009D00020E0FFEF54F0FFEFF0905120C083C08281
:1009E000E0FF900059E0FEEE4410FEEF4EFFD08293
:1009F000D083EFF07F017E00120C70905120E0FF59
:100A0000EF54EFFFEFF022900055EFF0900056ED1D
:100A1000F0900055E0FFEF1202450A2A000A370164
:100A20000A44020A510300000A5D900056E0FFEFFD
:100A30002480FF120BA822900056E0FFEF24C0FF95
:100A4000120BA822900056E0FFEF2494FF120BA88F
:100A500022900056E0FFEF24D4FF120BA822900052
:100A600052E4F0900052E0FFEFD3941F503D90000D
:100A700052E0FF7E02EF8EF0A4FFAEF0EF2400FF05
:100A8000EE3444FEAA06A9077B01C003C002C001E0
:100A90007BFF7A0B79F7AC02AD01D001D002D00315
:100AA000120CF2900052E004F080B822900059EF4E
:100AB000F0905120E0FFEF549FFFEFF0905120E0C5
:100AC000FFEF54F0FFEFF0905120C083C082E0FFB1
:100AD000900059E0FEEE4410FEEF4EFFD082D0832E
:100AE000EFF07F017E00120C70905120E0FFEF5478
:100AF000EFFFEFF0229000531202301202FC7F4011
:100B0000120BA8900056E4F0900056E0FFEFC3945B
:100B1000405020900053120227900056E0FFE92F2A
:100B2000F9E43AFA12001AFF120B72900056E00430
:100B3000F080D51202FC7F80120BA8227B0C7A0178
:100B400079CF120D19900052EFF0900052E0FFEFB4
:100B50005407FF90586EEFF0900052E0FFEFC4543E
:100B60000FFFEF540FFF90586FEFF09058767444DA
:100B7000F022900057EFF01202FC900057E0FFEFD8
:100B8000C4540FFF900058EFF0900058E0FF120996
:100B9000AC900057E0FFEF540FFF900058EFF0903B
:100BA0000058E0FF1209AC22900057EFF01202FC4F
:100BB000900057E0FFEFC4540FFF900058EFF09003
:100BC0000058E0FF120AAC900057E0FFEF540FFF0F
:100BD000900058EFF0900058E0FF120AAC22EC4D64
:100BE0006011ED60010C8B938A838982E4F0A3DDB0
:0A0BF000FCDCFA7593002280FE324F
:100C0000EC4D4E700D78FCEF24E950032840FD2296
:100C100000007BF178DA0000EF28FF78FFEE38FE65
:100C2000ED38FDEC38FC50E7EF2BFFEE38FEED38E9
:100C3000FDEC38FC40F22205020304758600EF4EFD
:100C40006027EF60010E759300900057E0F595A3C3
:100C5000E0F585A3E0F5848B938A838982E0A30580
:0F0C600086F0A31586DFF6DEF4E4F593F5952212
:100C7000EEFA900048E0F88FF0A4FFAEF0E88AF0BA
:100C8000A42EFEE5F03400FDEF24C9FF78FFEE3816
:100C9000FEED38FDE438FC5003020C00224400490C
:100CA000016E360044004400005DC0410048184415
:100CB000004E2EE00000410063004100640043004C
:100CC0005E0000004100650000900064E0FFEF70EE
:100CD000091208079000647401F0120D0D229000B3
:100CE00057EFF0900057E0FF900057EFF080FE22A2
:100CF0008B938A838982EDF0A3ECF07593002290A8
:100D00000055EFF0900055E0FF120B72227F0C129D
:100D10000BA89000637401F0228B938A838982E090
:100D2000759300FF228B938A838982EDF07593007F
:100D30002203070F0307070F0F1F1F1F1A1F181883
:100D4000181F1F1F041C0000001E1E1E1E00000096
:100D50000000030604040503001F070F0700101816
:100D60001F1F10180800070F1F00101C0404141880
:100D700000005100001000513000400051C0001030
:100D80000051F000100100001000011400080001E3
:0E0D900040000A00014C00020001500000204B
:00000001FF
